:100000000C9472000C949A000C949A000C949A0030
:100010000C949A000C949A000C949A000C949A00F8
:100020000C949A000C949A000C949A000C949A00E8
:100030000C949A000C949A000C949A000C949A00D8
:100040000C9441120C949A000C94B1120C948B12E3
:100050000C949A000C949A000C949A000C949A00B8
:100060000C949A000C949A00202020627920204958
:100070004B35505743202020004D6F6E69746F72CE
:1000800000313276204E6574776F726B2055505375
:100090000000000008000201000003040700000047
:1000A000000000000000000000250028002B0000D8
:1000B000000000240027002A0004040404040404AF
:1000C0000402020202020203030303030301020407
:1000D00008102040800102040810200102040810CA
:1000E0002000E31211241FBECFEFD8E0DEBFCDBF4A
:1000F00012E0A0E0B1E0E2ECF3E302C005900D9263
:10010000AC31B107D9F723E0ACE1B2E001C01D92F8
:10011000A434B207E1F710E0C2E7D0E004C02197B1
:10012000FE010E94AD18C137D107C9F70E9487139D
:100130000C94DF190C94000090E0FC01E353FF4F96
:10014000249187549F4FFC018491882399F090E07B
:10015000880F991FFC01E155FF4FA591B491FC0157
:10016000EB55FF4F859194918FB7F894EC91E22B6A
:10017000EC938FBF08958CBD9DBD0895FC01818DCA
:10018000928D0895089590E0FC01EF56FF4F249161
:10019000FC01E353FF4F3491FC01E754FF4FE4911E
:1001A000EE23C9F0222339F0233001F1A8F42130E5
:1001B00019F1223029F1F0E0EE0FFF1FEB55FF4F50
:1001C000A591B4918FB7F894EC91611126C0309548
:1001D0003E233C938FBF08952730A9F02830C9F003
:1001E000243049F7809180008F7D03C0809180008A
:1001F0008F7780938000DFCF84B58F7784BDDBCF8E
:1002000084B58F7DFBCF8091B0008F778093B00055
:10021000D2CF8091B0008F7DF9CF3E2BDACF8E50B8
:10022000806480937C0080917A00806480937A005F
:1002300080917A0086FDFCCF8091780090917900C2
:1002400008953FB7F8948091210290912202A091E5
:100250002302B091240226B5A89B05C02F3F19F0B8
:100260000196A11DB11D3FBFBA2FA92F982F882736
:10027000BC01CD01620F711D811D911D42E0660F11
:10028000771F881F991F4A95D1F708958F929F92E3
:10029000AF92BF92CF92DF92EF92FF924B015C013F
:1002A0000E9421016B017C010E9421016C197D09D2
:1002B0008E099F09683E734081059105A8F321E0EE
:1002C000821A9108A108B10888EEC80E83E0D81EF2
:1002D000E11CF11C81149104A104B10429F7FF90E1
:1002E000EF90DF90CF90BF90AF909F908F90089548
:1002F0002FB7F89460911D0270911E0280911F0229
:10030000909120022FBF0895AF92BF92CF92DF92BB
:10031000EF92FF920F931F93CF93DF936C017B01BA
:100320008B01040F151FEB015E01AE18BF08C0174B
:10033000D10759F06991D601ED91FC910190F081BE
:10034000E02DC6010995892B79F7C501DF91CF9181
:100350001F910F91FF90EF90DF90CF90BF90AF90E3
:100360000895FC01538D448D252F30E0842F90E0BB
:10037000821B930B541710F0CF96089501970895A0
:10038000FC01918D828D981761F0A28DAE0FBF2F69
:10039000B11D5D968C91928D9F5F9F73928F90E0BF
:1003A00008958FEF9FEF0895FC01918D828D98172E
:1003B00031F0828DE80FF11D858D90E008958FEF6B
:1003C0009FEF0895FC01918D228D892F90E0805C34
:1003D0009F4F821B91098F739927089589E492E0BA
:1003E0000E94E20121E0892B09F420E0822F089588
:1003F00080E090E0892B29F00E94EE0181110C949D
:1004000000000895FC01A48DA80FB92FB11DA35AB7
:10041000BF4F2C91848D90E001968F739927848F24
:10042000A689B7892C93A089B1898C918370806447
:100430008C93938D848D981306C00288F389E02DE8
:1004400080818F7D80830895EF92FF920F931F9399
:10045000CF93DF93EC0181E0888F9B8D8C8D981377
:100460001AC0E889F989808185FF15C09FB7F89483
:10047000EE89FF896083E889F989808183708064CF
:1004800080839FBF81E090E0DF91CF911F910F911A
:10049000FF90EF900895F62E0B8D10E00F5F1F4F29
:1004A0000F731127E02E8C8D8E110CC00FB607FC38
:1004B000FACFE889F989808185FFF5CFCE010E94C6
:1004C0000202F1CFEB8DEC0FFD2FF11DE35AFF4F30
:1004D000F0829FB7F8940B8FEA89FB898081806254
:1004E000CFCFCF93DF93EC01888D8823B9F0AA8911
:1004F000BB89E889F9898C9185FD03C0808186FDDF
:100500000DC00FB607FCF7CF8C9185FFF2CF80812D
:1005100085FFEDCFCE010E940202E9CFDF91CF919E
:100520000895982F990F990F990F80E0905408958E
:10053000CF93DF931F92CDB7DEB76983DC01ED91D6
:10054000FC910280F381E02D41E050E0BE016F5F3D
:100550007F4F09950F90DF91CF910895CF93DF934F
:100560001F92CDB7DEB76983DC01ED91FC9102806B
:10057000F381E02D41E050E0BE016F5F7F4F0995B0
:100580000F90DF91CF910895FC019485FB01848544
:10059000981303C081E0943008F080E00895CF9371
:1005A000DF931F92CDB7DEB76983DC01ED91FC913B
:1005B0000280F381E02D41E050E0BE016F5F7F4F8C
:1005C00009950F90DF91CF910895FC01768765879B
:1005D0000895DC01ED91FC9102A0F3A1E02D0995B5
:1005E00091E089270895862F089581E08627089550
:1005F00021E0FC018485843008F020E0822F0895FA
:100600000895FC01848595850895FC018489958968
:10061000089522EA31E0FC0131832083FB01408907
:10062000518962897389FC01428353836483758392
:100630000895DC01ED91FC91048CF58DE02D099479
:10064000FC0120812EBD9B012150310941F05181D7
:100650000DB407FEFDCF4EB55EBD4193F5CF6150A1
:100660007109860F971F0DB407FEFDCF2EB5FC0153
:1006700020830895F0E0E0E0808180830895F0E039
:10068000E0E080818083089508958EBD00000DB460
:1006900007FEFDCF8EB50895CF92DF92EF92FF92C5
:1006A0000F931F93CF93DF93CDB7DEB728970FB685
:1006B000F894DEBF0FBECDBF8C017B016A010E94A2
:1006C0003F030F3F110509F028F419820A8384E0E3
:1006D0008B830CC017FD1AC019820A8333E016956C
:1006E00007953A95E1F7007E0C600B8387010C0DAE
:1006F0001D1DE6E0CE16D10490F5F701DE0114963B
:100700000E171F0799F081918D93FACFC80126E04B
:10071000969587952A95E1F7807E19830A830115BE
:10072000104C10F48461D4CF8C61D2CFB6016D5FD0
:100730007F4FCE0101960E9420030E943A03C6011A
:1007400028960FB6F894DEBF0FBECDBFDF91CF91D4
:100750001F910F91FF90EF90DF90CF90089563E08D
:1007600070E0CE0101960E942003F70181917F0184
:100770000E944503E016F106C1F7DFCFFB01BA0185
:1007800090E0982F8827A9018E0F9F1F0C944C038F
:10079000CF93DF9300D0CDB7DEB779836A8322E0B1
:1007A00030E0AE014F5F5F4F60E170E00E94BE033A
:1007B0000F900F90DF91CF910895CF93DF9300D0EA
:1007C000CDB7DEB779836A8322E030E0AE014F5FB8
:1007D0005F4F64E070E00E94BE030F900F90DF91C6
:1007E000CF910895FF920F931F93CF93DF93EB0167
:1007F000FC01178A168A2A81211109C02B81211137
:1008000006C02C81211103C02D81222301F1411545
:100810005105E9F08A01FC01F08C80E591E00E942D
:10082000BB00AE014E5F5F4F24E030E06CE070E053
:100830008F2D0E94BE03B8018F2D0E94C80381E056
:1008400090E0DF91CF911F910F91FF90089580E08C
:10085000F7CFCF93DF931F92CDB7DEB79B014983CC
:1008600090E0982F882741E050E0BE016F5F7F4FF6
:10087000820F931F0E944C030F90DF91CF91089538
:10088000089590E080E00895CF93DF93EC0160E05D
:100890008E810E94C30061E08E810E94C30060E0EF
:1008A0008E810E94C3008BE891E00197F1F7DF9100
:1008B000CF910895CF92DF92EF92FF920F931F9303
:1008C000CF93DF936C017C0187E0E80EF11CD0E050
:1008D000C0E0062F10E0B8010C2E02C07595679598
:1008E0000A94E2F76170F70181917F010E94C300D1
:1008F0002196C430D10579F7C601DF91CF911F91C0
:100900000F91FF90EF90DF90CF900C944404CF9222
:10091000DF92EF92FF920F931F93CF93DF93EC013F
:10092000F62E642F8C810E94C3008D818F3F19F0B9
:1009300060E00E94C3000F2D10E08F8584FF25C06A
:100940006E0187E0C80ED11CF12CE12CB8010E2CF1
:1009500002C0759567950A94E2F76170F60181917E
:100960006F010E94C300FFEFEF1AFF0A88E0E8164C
:10097000F10461F7CE01DF91CF911F910F91FF90AC
:10098000EF90DF90CF900C944404B80184E075950B
:1009900067958A95E1F7CE010E945A046F2DCE012A
:1009A000DF91CF911F910F91FF90EF90DF90CF904B
:1009B0000C945A0441E00E94870481E090E008957D
:1009C00040E0682F88E293E00C94870490913B0309
:1009D000691710F06FEF690FE62FF0E0E85DFC4F4C
:1009E0009489890F80680C94E00481E00E94E004FF
:1009F0008BE39FE10197F1F70895CF93DF93823066
:100A000029F49091370398609093370380933B03C8
:100A100010923C0380E480933D0380E180933E0389
:100A200080E580933F0380912C030E949C0080917D
:100A30002D038F3F11F00E949C0080912E030E9495
:100A40009C00C8E2D3E09E012852334080913703D6
:100A500084FD0AC084E090E02196281739073CF411
:100A60008E810E949C00EFCF88E090E0F5CF8BE371
:100A70009DE00197F1F760E080912C030E94C30094
:100A800060E080912E030E94C30080912D038F3F70
:100A900019F060E00E94C3008091370384FD34C0E8
:100AA00063E088E293E00E945A04CBE4D6E4CE01EE
:100AB0000197F1F763E088E293E00E945A042197DE
:100AC000F1F763E088E293E00E945A0483E592E044
:100AD0000197F1F762E088E293E00E945A04809166
:100AE000370380620E94E00484E0809338038CE046
:100AF0000E94E0040E94F50482E08093390386E0BE
:100B0000DF91CF910C94E00480620E94E0048BE4BA
:100B100096E40197F1F78091370380620E94E00428
:100B200083E592E00197F1F78091370380620E949C
:100B3000E004D5CF0F931F93CF93DF938C01D0E0C8
:100B4000C0E0F801EC0FFD1F6491662339F041E02D
:100B500088E293E00E9487042196F3CFCE01DF91D3
:100B6000CF911F910F910895FB0101900020E9F7AB
:100B70003197AF01461B570BDC01ED91FC910280D0
:100B8000F381E02D09948F929F92AF92BF92EF92E2
:100B9000FF920F931F93CF93DF93CDB7DEB7A1974B
:100BA0000FB6F894DEBF0FBECDBF7C01FA01CB01BA
:100BB00019A2223008F42AE08E010F5D1F4F822E09
:100BC000912CB12CA12CBF01A50194010E94AD165E
:100BD000F901CA016A300CF5605DD8016E938D0190
:100BE000232B242B252B79F790E080E0109721F020
:100BF000BD01C7010E94B405A1960FB6F894DEBFEF
:100C00000FBECDBFDF91CF911F910F91FF90EF905D
:100C1000BF90AF909F908F900895695CDECF462F74
:100C200050E070E060E02AE00C94C3058F929F9240
:100C3000AF92BF92CF92DF92EF92FF920F931F93EA
:100C4000CF93DF937C01EB016C0182E0C80ED11CD5
:100C50004701E5E08E0E911C10E000E0F601619185
:100C60006F01CE010E940F065C01E881F9810190BD
:100C7000F081E02D6EE2CE0109958A0D9B1D080FD3
:100C8000191FC814D90451F7F7016581CE010E94DC
:100C90000F06800F911FDF91CF911F910F91FF9051
:100CA000EF90DF90CF90BF90AF909F908F9008957E
:100CB000BC0188E293E00C94B405EF92FF920F938D
:100CC0001F93CF93DF938C01EB0160E080E00E94E3
:100CD000E604C8010E94580661E080E00E94E60434
:100CE0008E017E0183E0E80EF11CF80161918F0115
:100CF00088E293E00E940F0680EB91E00E94580684
:100D00000E151F0591F76B8188E293E0DF91CF917B
:100D10001F910F91FF90EF900C940F064F925F92EE
:100D20006F927F928F929F92AF92BF92CF92DF92FB
:100D3000EF92FF92CF93DF936B017C01AC019B019B
:100D40000E94941862EB71E0811126C046015701A0
:100D5000E894B7F82FEF3FEF4FE75FE7C501B40125
:100D60000E94941881110CC02FEF3FEF4FE75FE70F
:100D7000C501B4010E943C1766EB71E0181664F0DF
:100D80002FEF3FEF4FE75FE4C701B6010E94221843
:100D90001816A4F46AEB71E088E293E0DF91CF913A
:100DA000FF90EF90DF90CF90BF90AF909F908F908B
:100DB0007F906F905F904F900C94B4052FEF3FEFB2
:100DC0004FE75FECC701B6010E943C1787FDE2CFF9
:100DD00020E030E0A901C701B6010E943C17D0E035
:100DE000C0E087FF0CC041E06DE288E293E00E9422
:100DF0008704F7FAF094F7F8F094C1E0D0E02AE025
:100E000037ED43EA5BE3C701B6010E94D0164B0100
:100E10005C010E9441176B017C010E9470179B01CD
:100E2000AC01C501B4010E94CF164B015C012AE060
:100E3000B701A60188E293E00E94C3057C01EC0E95
:100E4000FD1E41E06EE288E293E00E9487048FEF8E
:100E5000E81AF80A20E030E040E251E4C501B401AC
:100E60000E9427182B013C010E9441174B01B12C15
:100E7000A12C2AE0B501A40188E293E00E94C305F9
:100E8000E80EF91EC501B4010E9470179B01AC0168
:100E9000C301B2010E94CF1620E030E040E251E4ED
:100EA0000E9427180E944117AB0170E060E02AE021
:100EB00088E293E00E94C3058E0D9F1DDF91CF91C4
:100EC000FF90EF90DF90CF90BF90AF909F908F906A
:100ED0007F906F905F904F900895CF93C82F60E000
:100EE00080E00E94E6048EEB91E00E9458066C2F91
:100EF00088E293E00E940F0680EC91E00E94580681
:100F0000C23009F447C0C33009F44DC060911C01E0
:100F100070911D0180911E0190911F010E948E060B
:100F200087EC91E00E94580661E080E00E94E604B0
:100F300089EC91E00E9458066C2F88E293E00E94B1
:100F40000F0689EF91E00E945806C230A9F1C33024
:100F5000E1F1609124017091250180912601909129
:100F600027010E948E068BEC91E00E945806C23049
:100F7000A9F1C330E1F160912001709121018091CC
:100F80002201909123010E948E0687EC91E0CF917F
:100F90000C94580660912C0170912D0180912E01C6
:100FA00090912F01BBCF60913C0170913D018091E8
:100FB0003E0190913F01B2CF6091340170913501B3
:100FC0008091360190913701CCCF609144017091AE
:100FD00045018091460190914701C3CF6091300156
:100FE000709131018091320190913301CCCF6091A9
:100FF0004001709141018091420190914301C3CF22
:101000000C944F19CF92DF92EF92FF920F931F93A0
:10101000CF93DF9300D000D0CDB7DEB78C016B014A
:101020007A010E943F030F3F110509F030F5198244
:101030000A831B8263E070E0CE0101960E942003C8
:10104000A70170E060E0C6010E94D819E114F10424
:1010500021F0B701C6010E9420030E943A03C70194
:101060000F900F900F900F90DF91CF911F910F91E4
:10107000FF90EF90DF90CF90089517FD0BC019827D
:101080000A8333E0169507953A95E1F7007E0860EC
:101090000B83D0CFC80126E0969587952A95E1F776
:1010A000807E19830A830115104C18F480618B83AC
:1010B000C1CF8861FCCF1F93CF93DF931F92CDB731
:1010C000DEB7182F80E591E00E94BB00812F0E94BF
:1010D000910227E0129FF0011124EB5DFD4F228168
:1010E0003381377041E050E0BE016F5F7F4F820F68
:1010F000931F0E94020889810F90DF91CF911F9169
:101100000895FC01808D843040F4218D328D232B95
:1011100021F00E945B0890E008958FEF9FEF089503
:10112000CF93DF93FC012485243028F08FEF9FEFCD
:10113000DF91CF910895EC010190F081E02D0084C2
:10114000F185E02D0995892B89F38C850E945B0838
:1011500090E0EECFFB01BA0190E0982F8827A9011B
:101160008E0F9F1F0C9402086F927F929F92AF92F6
:10117000BF92CF92DF92EF92FF920F931F93CF9384
:10118000DF9300D0CDB7DEB7982E7B013A0159012D
:1011900022E030E0AE014F5F5F4F64E270E00E94FA
:1011A000AA0809811A811027012710270E0D1F1D7B
:1011B00098013770C92CD12C60E1C60ED11CDC2CF3
:1011C000CC24DD0CDD0CDD0CC9018C0D9D1DA901AD
:1011D0004A0D5B1D4130584080F160E078E07B01B2
:1011E000E21AF30AA701B3010E944C03A5014E19AC
:1011F0005F09B3016E0D7F1DC6010E944C030A0DED
:101200001B1D19830A8322E030E0AE014F5F5F4F60
:1012100064E270E0892D0E94BE030F900F90DF9171
:10122000CF911F910F91FF90EF90DF90CF90BF90E3
:10123000AF909F907F906F900895A501B301DDCF8F
:10124000EF92FF921F93CF93DF9300D0CDB7DEB71D
:10125000182F22E030E0AE014F5F5F4F60E270E098
:101260000E94AA08E980FA80FE24EF24FE2422E0EE
:1012700030E0AE014F5F5F4F60E270E0812F0E946F
:10128000AA0889819A81982789279827E816F9065C
:1012900089F487E0189FF0011124EB5DFD4FF58282
:1012A000E482C7010F900F90DF91CF911F91FF90C3
:1012B000EF9008957C01DBCF9F92AF92BF92CF92C7
:1012C000DF92EF92FF920F931F93CF93DF938C01E6
:1012D0005B01942EE52EFC01C688D788F08C80E552
:1012E00091E00E94BB008F2D0E942009C92DDE2DA8
:1012F0008C179D0708F4EC019E01A501B6018F2D06
:101300000E94B408F801868997898C0F9D1F978BDE
:10131000868BCE01DF91CF911F910F91FF90EF90BF
:10132000DF90CF90BF90AF909F900895FF920F9362
:101330001F93CF93DF9300D0CDB7DEB7F82E22E016
:1013400030E0AE014F5F5F4F66E270E00E94AA0896
:1013500009811A8110270127102722E030E0AE0111
:101360004F5F5F4F66E270E08F2D0E94AA0889816F
:101370009A819827892798270817190749F4C801DF
:101380000F900F90DF91CF911F910F91FF900895D3
:101390008C01E3CF1F93CF93DF93182F87E0189F23
:1013A000E0011124CB5DDD4F88819981009761F4C4
:1013B00080E591E00E94BB00812F0E9496092E815A
:1013C000821B910999838883DF91CF911F910895A2
:1013D000FC018485843010F40C94CA0990E080E00C
:1013E00008950F931F93CF93DF9300D0CDB7DEB74F
:1013F000FC0124852430E0F48C0180E591E00E941A
:10140000BB0022E030E0AE014F5F5F4F60E170E073
:10141000F80184850E94AA0889819A8198278927E2
:1014200098270F900F90DF91CF911F910F91089502
:1014300090E080E0F6CFEF92FF920F931F93CF934F
:10144000DF9300D000D0CDB7DEB78C017B01FB016C
:1014500084858430A8F082EA91E0F801918380834A
:101460001282138214821582C8010F900F900F9080
:101470000F90DF91CF911F910F91FF90EF90089502
:1014800080E591E00E94BB0024E030E0AE014F5FB8
:101490005F4F6CE070E0F70184850E94AA0882EA41
:1014A00091E0F8019183808389819A81AB81BC812D
:1014B00082839383A483B583D7CF0F931F93CF9356
:1014C000DF9300D0CDB7DEB7FC0124852430E0F4F3
:1014D0008C0180E591E00E94BB0022E030E0AE018B
:1014E0004F5F5F4F64E070E0F80184850E94AA08B6
:1014F00089819A819827892798270F900F90DF91EB
:10150000CF911F910F91089590E080E0F6CFCF9397
:10151000DF931F92CDB7DEB79B0190E0982F88270D
:1015200041E050E0BE016F5F7F4F820F931F0E942A
:10153000020889810F90DF91CF91089563E070E0F8
:101540000C94870A1F93CF93DF93182F80E591E0C7
:101550000E94BB00812F0E942009EC01812F0E9474
:101560009E0A873121F08C3111F0D0E0C0E0CE012D
:10157000DF91CF911F910895FC018485843010F490
:101580000C94A20A90E080E00895CF93C82F80E5E4
:1015900091E00E94BB008C2FCF910C949E0AEF9299
:1015A000FF920F931F93CF937C0101E412E0C0E000
:1015B000F801219131918F01F701848195812817DC
:1015C000390729F0CF5FC43099F780E006C08C2F2F
:1015D0000E94C50A8431B1F781E0CF911F910F912C
:1015E000FF90EF900895CF93DF93EC018C858430CA
:1015F000D0F40E94C50A843189F0882379F08831BB
:1016000069F021E08C3159F4E881F9810084F18599
:10161000E02DCE01099521E0892B09F420E0822FED
:10162000DF91CF91089580E0FBCFCF93DF93EC0162
:101630008C85843060F40E94C50A873111F08C31AA
:1016400031F48C850E94A20A8115984088F3DF91BD
:10165000CF910895CF93C82F462F61E070E00E948C
:10166000290461E070E08C2F0E94870A8111F9CF74
:10167000CF91089584E00895AF92BF92CF92DF9208
:10168000EF92FF920F931F93CF93DF9300D000D080
:1016900000D0CDB7DEB7082F6B0180E591E00E9446
:1016A000BB009E012F5F3F4F7901590110E0812F50
:1016B0000E949E0AF50181935F01882341F11F5F1B
:1016C0001430A9F710E0F70181917F018D31D1F03D
:1016D0008831C1F08A518230A8F01F5F143099F729
:1016E000812F26960FB6F894DEBF0FBECDBFDF91D7
:1016F000CF911F910F91FF90EF90DF90CF90BF900F
:10170000AF90089560E170E0812F0E942A0BE12ED6
:10171000F12CF701EE0FFF1FEF5BFD4F11821082DE
:1017200083EE93E00197F1F7402F70E060E0812FA6
:101730000E9429044FEF62E070E0812F0E9429048B
:10174000B601CD2889F480911A0190911B01019670
:101750008115F0EC9F0798F190931B0180931A017B
:1017600060911A0170911B01812F0E94DD0361E0DD
:1017700070E0812F0E942A0B27E02E9DC0012F9D33
:10178000900D11249C012B5D3D4F7901F9011182CF
:10179000108222E030E0AE014B5F5F4F68E270E004
:1017A000812F0E94AA088D819E81982789279827DA
:1017B000F7019383828316821582148291CF80E091
:1017C00090ECCACFCF92DF92EF92FF921F93CF930C
:1017D000DF93182F7B01EA014130584010F0C0E040
:1017E000D8E080E591E00E94BB00812F0E94200993
:1017F0006C01812F0E949E0A873111F08C3121F5F6
:10180000CC16DD0670F380E591E00E94BB009E01DE
:10181000A70170E060E0812F0E94B40860E270E0F0
:10182000812F0E942A0B62E070E0812F0E94870ABC
:1018300084FD0DC0812F0E949E0A8823B9F080E5A7
:1018400091E00E94BB00EFCFD0E0C0E0DCCF40E1F0
:1018500062E070E0812F0E942904CE01DF91CF91D8
:101860001F91FF90EF90DF90CF900895D0E0C0E0FF
:10187000F4CF0F931F93CF93DF938C01EA01FC0108
:101880008485843048F40E94E20B892B39F481E08E
:1018900090E0F80193838283D0E0C0E0CE01DF9135
:1018A000CF911F910F9108953F924F925F926F9247
:1018B0007F928F929F92AF92BF92CF92DF92EF92E0
:1018C000FF920F931F93CF93DF9300D0CDB7DEB776
:1018D000382E6B017A01A82EB12C27E0829FC0011F
:1018E0001124FC01EB5DFD4F4F010081118180E56A
:1018F00091E00E94BB000E151F0554F4832D0E9439
:101900009609F40126818C01021B110911830083C1
:101910000115110529F5832D0E949E0A843159F085
:10192000882349F001E010E08C3111F410E000E070
:10193000119501951109C8010F900F90DF91CF917A
:101940001F910F91FF90EF90DF90CF90BF90AF90DD
:101950009F908F907F906F905F904F903F900895F1
:10196000E016F1060CF4870187E08A9DF0018B9D5B
:10197000F00D1124EB5DFD4F42805380C114D10462
:1019800019F13201F7E07F22832D0E9491024C0170
:10199000C301880D991D9801260D371D213038404F
:1019A00008F448C060E078E07B01E618F708A7017A
:1019B000B6010E940208A8014E195F09B6016E0D1A
:1019C0007F1DC4010E940208400E511E87E08A9DBF
:1019D000F0018B9DF00D1124EB5DFD4F538242828F
:1019E00020813181201B310B318320838681800F40
:1019F000912F911D8A3F910510F4232BF1F487E07C
:101A00008A9DF0018B9DF00D1124EB5DFD4F168238
:101A100059824A8222E030E0AE014F5F5F4F68E2B8
:101A200070E0832D0E94BE0360E470E0832D0E946D
:101A30002A0B81CFA801B601C5CF86837CCFCF9377
:101A4000DF93FC01218D328D2115310529F48FEFB3
:101A50009FEFDF91CF910895EC01808D42175307DE
:101A600008F0A9010E94540C1816190684F7298D54
:101A70003A8D281B390B3A8F298FEBCF0F931F9389
:101A8000CF93DF931F92CDB7DEB7FC01218D328D4E
:101A9000232B41F48FEF9FEF0F90DF91CF911F9198
:101AA0000F9108958C0141E050E0BE016F5F7F4FC0
:101AB000FC01808D0E94540C181619065CF7F80181
:101AC000818D928D0197928F818F898190E0E4CFF3
:101AD0000F931F93CF93DF93CDB7DEB728970FB641
:101AE000F894DEBF0FBECDBF8C01D80159964D9141
:101AF0005C915A974115510551F0ED91FC91048C80
:101B0000F58DE02D70E060E0C8010995EECFF80199
:101B1000808D0E94CA09892BB1F148E050E0BE01D6
:101B20006F5F7F4FD80158968C910E94540C181605
:101B30001906F4F4D801509684E0FE013196019024
:101B40000D928A95E1F78D8190E0982F88272E815C
:101B5000820F911DF801958B848B8F81282F30E0A7
:101B6000322F22278885820F932F911D928F818F8C
:101B700028960FB6F894DEBF0FBECDBFDF91CF9190
:101B80001F910F91089590E080E0F2CFCF93DF9303
:101B90001F92CDB7DEB741E050E0BE016F5F7F4FCF
:101BA000FC0184850E94540C1816190634F48981AE
:101BB00090E00F90DF91CF9108958FEF9FEFF9CFD5
:101BC000FC018485843010F40C94540C90E080E087
:101BD0000895CF93C82F80E591E00E94BB0068E094
:101BE00070E08C2FCF910C942A0B90E080E0089548
:101BF000CF93C82F80E591E00E94BB0060E170E0C8
:101C00008C2FCF910C942A0BEF92FF920F931F937E
:101C1000CF93DF9300D000D000D0CDB7DEB78C01DA
:101C20007A01FC01808D843010F40E94F80DB70118
:101C3000CE0101960E943A0BF801808F843090F417
:101C4000F586E486128E118E81E026960FB6F89402
:101C5000DEBF0FBECDBFDF91CF911F910F91FF90DF
:101C6000EF90089580E0F1CFCF93DF93EC01888D62
:101C7000843020F40E94F80D84E0888FDF91CF91AA
:101C80000895CF93DF93EC01888D843010F40E9487
:101C9000F80D84E0888F80E0DF91CF910895CF9296
:101CA000DF92EF92FF92CF93DF93EC018C8584302B
:101CB00068F40E94E90D0E9478016B017C018C851B
:101CC0000E94C50A811109C084E08C87DF91CF9101
:101CD000FF90EF90DF90CF90089561E070E080E09A
:101CE00090E00E9446010E947801AB01BC014C19B2
:101CF0005D096E097F098D859E85B0E0A0E04817DB
:101D000059076A077B07D8F28C850E94F80DDCCF53
:101D1000CF93FC01C08D80E591E00E94BB0060E2A2
:101D200070E08C2F0E942A0B62E070E08C2F0E94E2
:101D3000870A84FD16C062E070E08C2F0E94870A3B
:101D400083FF0AC048E162E070E08C2F0E94290402
:101D500080E090E0CF91089580E591E00E94BB0083
:101D6000E3CF40E162E070E08C2F0E94290481E023
:101D7000F0CF4F925F926F927F928F929F92AF922D
:101D8000BF92CF92DF92EF92FF920F931F93CF9368
:101D9000DF93CDB7DEB763970FB6F894DEBF0FBE03
:101DA000CDBF7C016B013A01FB0120E090E080E0B7
:101DB0006AE03191332309F461C040ED430F4A30AA
:101DC00008F04DC0689FA001699F500D1124CA0101
:101DD000C097830F911D37FD9A958F3F910549F369
:101DE00040F3F701428153816481758180910C0336
:101DF00090910D03A0910E03B0910F03481759075E
:101E00006A077B0709F40DC28701085F1F4F0E9414
:101E100078016F7077277C5FC8010E94410E813086
:101E200009F004C282EA91E09A838983F7018281F2
:101E30009381A481B5818B839C83AD83BE8345E36D
:101E400050E0BE016F5F7F4FC8010E94F203892BF3
:101E5000A9F5D12CC12CC8010E94340E17C03E3206
:101E600009F0BFCF233009F4BCCFD301A20FB11DBD
:101E700012968C932F5F90E080E09BCF233009F087
:101E8000B0CFF3018583CC24C394D12CC6016396D3
:101E90000FB6F894DEBF0FBECDBFDF91CF911F917B
:101EA0000F91FF90EF90DF90CF90BF90AF909F90F9
:101EB0008F907F906F905F904F9008950E9478016F
:101EC000F7017783668342E050E0B7016A5F7F4F96
:101ED000C8010E945C0981E090E09A83898342E016
:101EE00050E0BE016F5F7F4FC8010E945C0980E037
:101EF00091E09A83898342E050E0BE016F5F7F4F9B
:101F0000C8010E945C091A82198242E050E0BE01B9
:101F10006F5F7F4FC8010E945C0942E050E0BE0144
:101F20006F5F7F4FC8010E945C0942E050E0BE0134
:101F30006F5F7F4FC8010E945C095601F6018081E6
:101F4000882301F16501F60181912F01882311F0A9
:101F50008E32B1F446018A189B081814190474F4DF
:101F60008D8641E050E0BE01635F7F4FC8010E9453
:101F70005C09A401B501C8010E945C095201DECFD1
:101F80006201E1CF1D8641E050E0BE01635F7F4FFB
:101F9000C8010E945C09C12CDD24D394DA82C98275
:101FA00042E050E0BE016F5F7F4FC8010E945C09B4
:101FB000DA82C98242E050E0BE016F5F7F4FC80104
:101FC0000E945C09C8010E94880E892B09F441CF48
:101FD000F3E0AF2EB12C230122E0420E511CD4C0FD
:101FE000F7014281538164817581808D918DA28D2D
:101FF000B38D481759076A077B0709F008C1848D1C
:10200000958DC59709F003C181A192A15DEFC52E01
:10201000DD24DA940C970CF4ADC04CE050E0BE0126
:102020006F5F7F4FC8010E941F0D8B819C81982795
:10203000892798279A8B898BF701468157812981B7
:102040003A814217530709F0E7C097FFE5C08F7048
:1020500092703BEFC32EDD24DA94892B09F08AC0FD
:102060006F8078847624672476242AEFC22EDD24BC
:10207000DA946114710409F47DC0D12CC12C8D81D6
:102080009E81982789279827C816D906F8F441E039
:1020900050E0BE01635F7F4FC8010E941F0D4D8558
:1020A000442331F050E070E060E0C8010E941F0D51
:1020B0008D858111ECCF44E050E070E060E0C80114
:1020C0000E941F0DFFEFCF1ADF0AD9CF912C812C70
:1020D00041E050E0BE016D5E7F4FC8010E941F0DC0
:1020E0004B89842F807C09F06CC0442331F050E090
:1020F00070E060E0C8010E941F0D8B898111E8CF5C
:1021000042E050E0BE01615F7F4FC8010E941F0D99
:1021100042E050E0BE01635F7F4FC8010E941F0D87
:1021200044E050E070E060E0C8010E941F0D42E012
:1021300050E0BE016F5E7F4FC8010E941F0D8F856A
:10214000988949895A898115914009F043C0CD8405
:10215000DE84DC24CD24DC2481E0C816D104D1F552
:102160004115544009F04AC044E050E0B201C801B2
:102170000E941F0D21E0A21AB10809F46CCEFFEFF6
:10218000CF16DF0609F067CE0E9478013B014C01B3
:10219000C8010E94680D181619060CF421CF0E9480
:1021A00078016619770988099909693873418105A9
:1021B000910548F562E370E080E090E00E944601FE
:1021C000E7CF41E050E070E060E0C8010E941F0DE1
:1021D0001B8A93CF54274527542770E060E0C8013D
:1021E0000E941F0DFFEF8F1A9F0A6814790409F0EF
:1021F0006FCF96EFC92EDD24DA94BCCFE7EFCE2E59
:10220000DD24DA94B7CFCC24CA94DC2CB3CF6EEFA4
:10221000C62EDD24DA94AECF4CEFC42EDD24DA9442
:10222000A9CF8EEFC82EDD24DA9430CED12CC12C6C
:102230002DCECF92DF92EF92FF920F931F93CF9309
:10224000DF93CDB7DEB7AF970FB6F894DEBF0FBE02
:10225000CDBF7C016A0102EA11E01A8309831C8662
:102260001B8688EE93E0A0E0B0E08D879E87AF8765
:10227000B88B86E691E09A878987188F0F8B198E25
:102280001A8E1B8E1C8E84E089A31BA70AA71CA68E
:102290001DA61EA61FA68091000390910103A09188
:1022A0000203B09103038EA39FA3A8A7B9A78B83B2
:1022B0009C83AD83BE8318861F82AE01465D5F4F4F
:1022C000CE0101960E94B90E81309105B1F4D7017B
:1022D000ED91FC910488F589E02D1DA30CA38CA53C
:1022E0009DA5AEA5BFA58EA39FA3A8A7B9A7A6012C
:1022F000BE016C5D7F4FC7010995AF960FB6F8948C
:10230000DEBF0FBECDBFDF91CF911F910F91FF9028
:10231000EF90DF90CF900895CF92DF92EF92FF92EF
:102320000F931F93CF93DF93CDB7DEB7AF970FB661
:10233000F894DEBF0FBECDBF8C016B017A0182EA3B
:1023400091E09A8389831B821C821D821E821C86D7
:102350001B8648EE53E060E070E04D875E876F8734
:10236000788B26E631E03A872987988F8F8B198EF4
:102370001A8E1B8E1C8E24E029A39BA78AA71CA65D
:102380001DA61EA61FA6D8011C968C91843060F451
:102390000E94C50A882321F0F80184850E94E90D76
:1023A00084E0D8011C968C938091000390910103E6
:1023B000A0910203B09103038EA39FA3A8A7B9A77E
:1023C0008B839C83AD83BE8318861F82AE01465DDE
:1023D0005F4FB601CE0101960E94B90E0097C1F081
:1023E000D801ED91FC910684F785E02D82EA91E019
:1023F0009DA38CA38CA59DA5AEA5BFA58EA39FA3D1
:10240000A8A7B9A7A701BE016C5D7F4FC8010995B8
:10241000AF960FB6F894DEBF0FBECDBFDF91CF9160
:102420001F910F91FF90EF90DF90CF900895089546
:102430000F931F93CF93DF93EC018B018C85843036
:1024400048F40E94C50A882319F08C850E94E90D82
:1024500084E08C87F80182819381A481B581009703
:10246000A105B10539F08F3F9F4FAF4FBF4F11F01E
:1024700084E08C8790E080E0DF91CF911F910F91F5
:1024800008951F920F920FB60F9211242F933F932E
:102490008F939F93AF93BF9380911D0290911E02E3
:1024A000A0911F02B091200230911C0223E0230F63
:1024B0002D3758F50196A11DB11D20931C02809364
:1024C0001D0290931E02A0931F02B09320028091E0
:1024D000210290912202A0912302B0912402019640
:1024E000A11DB11D8093210290932202A09323028B
:1024F000B0932402BF91AF919F918F913F912F9103
:102500000F900FBE0F901F90189526E8230F02968C
:10251000A11DB11DD2CF1F920F920FB60F921124A1
:102520002F933F934F935F936F937F938F939F93DB
:10253000AF93BF93EF93FF9389E492E00E9402026E
:10254000FF91EF91BF91AF919F918F917F916F918B
:102550005F914F913F912F910F900FBE0F901F9061
:1025600018951F920F920FB60F9211242F938F93ED
:102570009F93EF93FF93E0915902F0915A0280816B
:10258000E0915F02F091600282FD1BC0908180911A
:1025900062028F5F8F7320916302821741F0E09196
:1025A0006202F0E0E75BFD4F958F80936202FF913E
:1025B000EF919F918F912F910F900FBE0F901F90D1
:1025C00018958081F4CFE9E4F2E01382128288EE5C
:1025D00093E0A0E0B0E084839583A683B78380E98D
:1025E00091E09183808385EC90E09587848784ECEB
:1025F00090E09787868780EC90E0918B808B81ECD0
:1026000090E0938B828B82EC90E0958B848B86ECB0
:1026100090E0978B868B118E128E138E148EE6EEC1
:10262000F2E082EA91E09183808312821382148225
:102630001582ECEEF2E09183808312821382148281
:102640001582E2EFF2E0918380831282138214827A
:102650001582E8EFF2E09183808312821382148264
:102660001582E4E0F3E09183808312821382148266
:102670001582EEEFF2E0918380831282138214823E
:102680001582EAE0F3E09183808312821382148240
:102690001582E0E1F3E09183808312821382148239
:1026A0001582E6E1F3E09183808312821382148223
:1026B0001582ECE1F3E0918380831282138214820D
:1026C0001582E2E2F3E09183808312821382148206
:1026D0001582E8E2F3E01382128288EA91E09183A6
:1026E000808387E084838FEF858386E0868382E022
:1026F000878383E0808784E0818785E082871386F3
:10270000148615861686178681E00C94FD0478944D
:1027100084B5826084BD84B5816084BD85B58260E6
:1027200085BD85B5816085BD80916E008160809397
:102730006E00109281008091810082608093810000
:102740008091810081608093810080918000816010
:10275000809380008091B10084608093B10080916B
:10276000B00081608093B00080917A008460809393
:102770007A0080917A00826080937A0080917A005A
:10278000816080937A0080917A00806880937A00DB
:102790001092C100E0915902F0915A0282E08083C8
:1027A000E0915502F09156021082E0915702F091AB
:1027B00058028FEC808310926102E0915D02F091EB
:1027C0005E0286E08083E0915B02F0915C02808192
:1027D00080618083E0915B02F0915C02808188607F
:1027E0008083E0915B02F0915C028081806880834D
:1027F000E0915B02F0915C0280818F7D808382E0BA
:102800000E94FD040E94F50460E080E00E94E6045E
:1028100081E890E00E949A0561E080E00E94E60471
:1028200089E790E00E949A0564EA76E080E090E013
:102830000E9446010E94F50460E080E00E94E604E8
:102840008EEC91E00E94580687ED91E00E945806B8
:1028500061E080E00E94E60488E690E00E949A052C
:10286000EE24EA9493E0F92E25E0222E312C38EE66
:10287000432E33E0532E612C712CC09100016C2F3C
:1028800061708AE00E94C3006C2F62708BE00E942E
:10289000C30065E070E080E090E00E9446016BEDCF
:1028A00071E089E492E00E94B40562EE71E089E48F
:1028B00092E00E94B40582E10E940F016C016AE07F
:1028C00070E080E090E00E94460181E10E940F01EB
:1028D0005C016AE070E080E090E00E94460180E1E7
:1028E0000E940F014C016AE070E080E090E00E94DD
:1028F00046018EE00E940F018C016AE070E080E0EA
:1029000090E00E9446018FE00E940F01EC016AE016
:1029100070E080E090E00E9446012FEF821623E0F5
:102920009206C9F025E0289DC001299D900D112433
:10293000B7010E949918660F771F660F771F90E006
:1029400080E00E94701760932401709325018093AA
:102950002601909327018FEFA81683E0B806C9F0EF
:1029600025E02A9DC0012B9D900D1124B7010E94E6
:102970009918660F771F660F771F90E080E00E941E
:1029800070176093340170933501809336019093F2
:1029900037018FEFC81683E0D806C9F025E02C9DDB
:1029A000C0012D9D900D1124B7010E949918660F4A
:1029B000771F660F771F90E080E00E94701760938A
:1029C0004401709345018093460190934701D09054
:1029D000000181EBD81609F4FBC08D1508F4A7C0DF
:1029E00090EBD91609F4D9C020912C0130912D011A
:1029F00040912E0150912F0160911C0170911D0199
:102A000080911E0190911F010E94D01620913C01DF
:102A100030913D0140913E0150913F010E94D016FE
:102A20009B01AC012093500130935101409352011E
:102A30005093530160914C0170914D0180914E0172
:102A400090914F010E942718609354017093550193
:102A5000809356019093570193EBD912F5C020EB68
:102A60002093000183E10E940F01EC016AE070E015
:102A700080E090E00E94460183E10E940F019E01E8
:102A800036952795369527959695879596958795AA
:102A90002817390709F0DEC0C436D10508F0D8C0C0
:102AA00080910101813209F4D5C081E28093010156
:102AB000809319010E947801C0910301A301920142
:102AC0000E94AD162C2720FD03C0C150C093030106
:102AD00090911901913259F480910201863B09F0DD
:102AE000BBC080EB8093020128E02093030180911A
:102AF000030181112FC180910201833B08F4AEC014
:102B000080EB809302010E94F504E0910201E05BFA
:102B1000E73008F0EFC0F0E0E057FA4E0C94AD1843
:102B200030169116951697169916A016A51622EB33
:102B3000D21609F46EC083EBD81256CF902F990F9E
:102B4000990F80E0B1010E949918660F771F660FF8
:102B5000771F90E080E00E94701760935801709397
:102B6000590180935A0190935B019C2F990F990F03
:102B700080E0B1010E949918660F771F660F771FDA
:102B800090E080E00E94701760934C0170934D01BB
:102B900080934E0190934F0127CFB80190E080E0E1
:102BA0000E9470176093300170933101809332015D
:102BB00090933301BE0190E080E00E947017609313
:102BC00020017093210180932201909323010CCF67
:102BD000B80190E080E00E94701760932C01709320
:102BE0002D0180932E0190932F01BE0190E080E093
:102BF0000E94701720E030E040E85EE30E94271852
:102C0000609340017093410180934201909343018E
:102C1000EBCEB80190E080E00E94701760931C0139
:102C200070931D0180931E0190931F01BE0190E0DF
:102C300080E00E94701760933C0170933D01809387
:102C40003E0190933F01D0CED394D09200010ACFA1
:102C500080E22CCF80E22CCF8F5F44CF8F5F51CFAB
:102C600060E080E00E94E60420E030E0A90160918D
:102C700058017091590180915A0190915B010E9415
:102C80003C17882309F44AC085EE91E00E9458065B
:102C900060E08AE00E94E60460914C0170914D0171
:102CA00080914E0190914F010E948E0686EF91E037
:102CB0000E94580661E080E00E94E60460915001A5
:102CC0007091510180915201909153010E948E06A2
:102CD00088EF91E00E94580660915401709155016F
:102CE00080915601909157010E948E068BEF91E0E2
:102CF0000E94580680910301811103C094E09093D3
:102D0000030180E090E0892B09F4B7CD0E94EE0129
:102D1000882309F4B2CD0E940000AFCD8EEE91E081
:102D2000B5CF81E00E946D07E5CF82E0FBCF83E065
:102D3000F9CF64E071E08DEF91E00E945D06DACF9B
:102D400068E071E088E092E0F8CF6CE071E084E147
:102D500092E0F3CF913271F6D6CEA1E21A2EAA1BE1
:102D6000BB1BFD010DC0AA1FBB1FEE1FFF1FA2173B
:102D7000B307E407F50720F0A21BB30BE40BF50B38
:102D8000661F771F881F991F1A9469F760957095C1
:102D9000809590959B01AC01BD01CF0108955058DD
:102DA000BB27AA270E94E7160C94E8170E94DA179F
:102DB00038F00E94E11720F039F49F3F19F426F40F
:102DC0000C94D7170EF4E095E7FB0C94D117E92F7C
:102DD0000E94F91758F3BA1762077307840795071B
:102DE00020F079F4A6F50C941B180EF4E0950B2E48
:102DF000BA2FA02D0B01B90190010C01CA01A0014D
:102E00001124FF27591B99F0593F50F4503E68F1A7
:102E10001A16F040A22F232F342F4427585FF3CFE8
:102E2000469537952795A795F0405395C9F77EF4B9
:102E30001F16BA0B620B730B840BBAF09150A1F002
:102E4000FF0FBB1F661F771F881FC2F70EC0BA0F88
:102E5000621F731F841F48F4879577956795B79510
:102E6000F7959E3F08F0B0CF9395880F08F099270B
:102E7000EE0F9795879508950E94AD1708F481E0AD
:102E800008950E94011888F09F5798F0B92F99274C
:102E9000B751B0F0E1F0660F771F881F991F1AF045
:102EA000BA95C9F714C0B13091F00E941B18B1E077
:102EB00008950C941B18672F782F8827B85F39F076
:102EC000B93FCCF3869577956795B395D9F73EF4DE
:102ED00090958095709561957F4F8F4F9F4F089586
:102EE000E89409C097FB3EF49095809570956195A4
:102EF0007F4F8F4F9F4F9923A9F0F92F96E9BB275A
:102F00009395F695879577956795B795F111F8CFD5
:102F1000FAF4BB0F11F460FF1BC06F5F7F4F8F4F40
:102F20009F4F16C0882311F096E911C0772321F036
:102F30009EE8872F762F05C0662371F096E8862FCE
:102F400070E060E02AF09A95660F771F881FDAF725
:102F5000880F9695879597F90895990F0008550F52
:102F6000AA0BE0E8FEEF16161706E807F907C0F00F
:102F700012161306E407F50798F0621B730B840B17
:102F8000950B39F40A2661F0232B242B252B21F4F1
:102F900008950A2609F4A140A6958FEF811D811D91
:102FA000089597F99F6780E870E060E008959FEFCB
:102FB00080EC089500240A941616170618060906D0
:102FC000089500240A94121613061406050608959F
:102FD000092E0394000C11F4882352F0BB0F40F427
:102FE000BF2B11F460FF04C06F5F7F4F8F4F9F4F67
:102FF000089557FD9058440F551F59F05F3F71F0E9
:103000004795880F97FB991F61F09F3F79F087954F
:103010000895121613061406551FF2CF4695F1DFD8
:1030200008C0161617061806991FF1CF8695710568
:10303000610508940895E894BB2766277727CB019C
:1030400097F908950E94AD1708F48FEF08950E9434
:103050003A180C94E8170E94DA1738F00E94E1172A
:1030600020F0952311F00C94D1170C94D71711244C
:103070000C941C180E94F91770F3959FC1F3950FDB
:1030800050E0551F629FF001729FBB27F00DB11DEC
:10309000639FAA27F00DB11DAA1F649F6627B00D7C
:1030A000A11D661F829F2227B00DA11D621F739F65
:1030B000B00DA11D621F839FA00D611D221F749F73
:1030C0003327A00D611D231F849F600D211D822FBA
:1030D000762F6A2F11249F5750409AF0F1F08823E1
:1030E0004AF0EE0FFF1FBB1F661F771F881F91500E
:1030F0005040A9F79E3F510580F00C94D1170C94D5
:103100001C185F3FE4F3983ED4F386957795679556
:10311000B795F795E7959F5FC1F7FE2B880F911D37
:103120009695879597F908950E94AD17880B990B8E
:103130000895AA1BBB1B51E107C0AA1FBB1FA617FE
:10314000B70710F0A61BB70B881F991F5A95A9F750
:1031500080959095BC01CD010895EE0FFF1F05905D
:10316000F491E02D09940F931F93CF93DF93823056
:10317000910510F482E090E0E0914203F091430366
:1031800030E020E0B0E0A0E0309799F4211531055F
:1031900009F44AC0281B390B24303105D8F58A813F
:1031A0009B816115710589F1FB0193838283FE0187
:1031B00011C0408151810281138148175907E0F005
:1031C0004817590799F4109761F012960C931297CB
:1031D00013961C933296CF01DF91CF911F910F91DF
:1031E00008950093420310934303F4CF2115310552
:1031F00051F04217530738F0A901DB019A01BD01D4
:10320000DF01F801C1CFEF01F9CF90934303809321
:103210004203CDCFFE01E20FF31F81939193225021
:10322000310939832883D7CF20914003309141035E
:10323000232B41F420915E0130915F0130934103D3
:103240002093400320915C0130915D0121153105EF
:1032500041F42DB73EB74091600150916101241BAC
:10326000350BE0914003F0914103E217F307A0F41E
:103270002E1B3F0B2817390778F0AC014E5F5F4FCC
:103280002417350748F04E0F5F1F509341034093BA
:103290004003819391939FCFF0E0E0E09CCFCF93E8
:1032A000DF930097E9F0FC01329713821282A0911C
:1032B0004203B0914303ED0130E020E01097A1F408
:1032C00020813181820F931F20914003309141036F
:1032D0002817390709F061C0F0934103E0934003D8
:1032E000DF91CF910895EA01CE17DF07E8F54A8113
:1032F0005B819E0141155105B1F7E901FB83EA832A
:1033000049915991C40FD51FEC17FD0761F48081D5
:1033100091810296840F951FE901998388838281A8
:1033200093819B838A83F0E0E0E012968D919C91DB
:1033300013970097B9F52D913C911197CD01029605
:10334000820F931F209140033091410328173907C2
:1033500039F6309751F51092430310924203B0931F
:103360004103A0934003BCCFD383C28340815181EA
:10337000840F951FC817D90761F44E5F5F4F88818E
:103380009981480F591F518340838A819B81938380
:1033900082832115310509F0B0CFF0934303E09308
:1033A00042039ECFFD01DC01C0CF13821282D7CF32
:1033B000DC0101C06D9341505040E0F70895F8944E
:0233C000FFCF3D
:1033C200B020B60100000000000000000000000074
:1033D200000000000000A200002000C01F8535414F
:1033E2001F854541000000009A99E242B0726A418D
:1033F200AA823541000000009A99DE42DD24924003
:103402000AD7833F00000000333353401A86354108
:103412000DC3B241142E9A4400002041000044031F
:1034220080000000000098025C094104C200BE0056
:103432003E0D8108410E040E340EF2031911880E5E
:10344200680D1F0D190309030503010300000000A5
:1034520024028401B1017102E201C001D401000021
:103462000000160600000000DA0484014104400452
:103472002E006E616E00696E66006F7666004D000A
:1034820020496F75742000410042005620005665A5
:103492007273696F6E2000302E3700696E697A6927
:1034A2006F000D0A00414320506F77657200426140
:1034B200747465727900560041200057004950200B
:1034C20041646472657373005375626E6574206D36
:0C34D20061736B004761746577617900DD
:00000001FF
